:0206CA0005FB2E
:0206CC0006C066
:0206CE0004998D
:0206D00005DC47
:0206D20004EF33
:030000000206A94C
:0C06A900787FE4F6D8FD75812A0202DBA0
:10040100303132333435363738390052756E204247
:10041100792044533138423230004552524F520014
:1004210054656D703A0027430052756E6E617761B5
:0E043100792054656D70657261747572650096
:10055B00E4FF1206DCE4F51AE51A90041B93FF6026
:10056B000E120633051A7F647E001206B580E980F1
:01057B00FE81
:10057C00E4FF1206DCE4F50FE50F90040C93FF602A
:0F058C000E120633050F7F0A7E001206B580E9B6
:01059B00223D
:10059C007F401206DCE4F50FE50F90042193FF6019
:0F05AC000E120633050F7F0A7E001206B580E996
:0105BB00221D
:10068A007F491206DC7F2E1206337F0A7E0002069D
:01069A00B5AA
:1005BC007F4C1206DCE4F50FE50F90042793FF60E7
:0F05CC000E120633050F7F0A7E001206B580E976
:0105DB0022FD
:1003BB00EF75F06484F50FEF75F06484E5F075F07C
:1003CB000A84F510EF75F00A8485F0117F4612064A
:1003DB00DCE50F90040193FF120633E51090040146
:1003EB0093FF120633E51190040193FF1206337F3E
:0603FB00327E0002069BA9
:10064D008F0F7F4A1206DCE50F90040193FF12060F
:08065D00337F327E0002069B90
:1005FB001206787F0112000E7F0212000E7F03128B
:0C060B00000E7F0412000EE4FF020097B6
:0A06C0001200038F0E1206D480F61C
:1004990012036D7F057E0012069B12057C12059CD6
:1004A90012068A1205BC120318AF191203BBAF1644
:0C04B90012064D7F647E001206B580EA3A
:1005DC00E51975F06484D3940040107BFF7A04799C
:0F05EC002A1205387F0412012080E5D29080E1A9
:1004EF00E4F515E4FBFAFD7F01120147E4F515B2BF
:1004FF00907F027E0012069B0515E515C39464409C
:05050F00EEC29080DE49
:10066500C2A0D2A1D2A200000000A2879201C2A21C
:02067500A201E0
:010677002260
:1006170012066540FBC2A0C2A1C2A200008F8000E3
:0C062700000000D2A200000000C2A222CD
:0706DC00EF4480FF02061746
:1006330012066540FBD2A0C2A1C2A28F80000000B7
:0A06430000D2A200000000C2A222B3
:10036D007F0F7E001206B57F381206177F057E00BF
:10037D001206B57F381206177F057E001206B57F6F
:10038D00381206177F057E001206B57F0C12061770
:10039D007F057E001206B57F061206171F7E00121E
:0E03AD0006B57F011206177F057E000206B519
:10051400D2A37F087E001206B5C2A37F5A7E0012C2
:1005240006B5D2A37F087E001206B5D2A37F047E4F
:04053400000206B506
:1004C500D2A3E4F50FC2A3E510C313F510D2A330F0
:1004D500A3034310807F087E001206B5D2A3050F43
:0904E500E50FC3940840DEAF10DE
:0104EE0022EB
:02043F008F0F1D
:10044100E4F510F510C2A3E50F1392A37F057E001A
:100451001206B5D2A3E50FC313F50F0510E510C3BE
:0B046100940840E17F047E000206B515
:10031800C2AF1205147FCC12043F7F4412043F7F02
:100328005E7E011206B51205147FCC12043F7FBE13
:1003380012043F1204C58F181204C58F17E518C49C
:10034800540FFFE517C454F02FF519E518540F752D
:10035800F00AA4FFE5F0C4F854F0C8EFC4540F48FD
:05036800F516D2AF22E2
:070003003098FDC298AF998F
:01000A0022D3
:060538008B128A138914E6
:10053E00E4FFAB12AA13A9148F8275830012046C08
:0C054E00600AF5993099FDC2990F80E613
:01055A00227E
:0806D4008F993099FDC29922B3
:0D069B00EFD3940040077E7CDEFE1F80F34D
:0106A800222F
:0B06B500EF1FAC0670011E4C70F62217
:10067800758920E4F587758DFD758BFD759850D2C9
:020688008E22C0
:10000E00EFD3940440037FFF2274222F2FF8E620B3
:10001E00E5F4C2AFE64430F6D2AFAE0CEEC39F505D
:10002E00210E741B2EF8E6F908E618BE040274FFC2
:10003E00FDED69600909E71919F7090980F316162C
:10004E0080DAEED39F400405810581EED39F4022D6
:10005E00741B2EF808E6F9EEB50C02A981180606F7
:10006E00E6FDED6960091919E70909F71980F31E14
:10007E0080D9EF241BF8E604F8EF2F049006CA93FC
:09008E00F608EF2F93F67F002223
:10009700EFD3940440037FFF22EF232422F8E630B6
:1000A700E5F4C2AFE6548CF6D2AFE50CB5070A7497
:1000B7001B2FF8E6F581020221502E741C2FF8E65B
:1000C700BF040274FFFD18E6F9741B2FF8FBE6FC6A
:1000D700E96C6008A805E7F61D1980F4A803A605D2
:1000E7001FE50CB507E37F0022741C2FF8E6FD1807
:1000F70086010F741B2FF8A601088604E50CB507C7
:1001070002AC81ED6C60080D09A805E6F780F4E5FF
:090117000CB507DE89817F00228E
:10012000EFD3940440037FFF22EF232422F8C2AFD1
:10013000E630E50530E002D2E4D2E2C6D2AF7F007D
:0701400030E2010F0201F59E
:100147008FF0E4FFFEE50C232421F8C2A930F70D58
:100157007F08E6600B2DF660325030800730F106DD
:10016700EDF660277E020830F010C2AFE610E725F3
:100177000E30E20CD2AF7F048014C2AFE610E71551
:1001870054EC4EF6D2AFD2A90202217F0808EF4401
:0F01970083F4C2AF56C6D2AFD2A954804FFF2215
:03000B000201AB44
:1001A600C2AF80FE321201AA85D00B75D008AAE034
:1001B600C28CE58A24F7F58AE58C34D8F58CD28C86
:1001C600EC241CF8E6BC040274FFC39581B4140049
:1001D60040CE7905782116E608700BC2AFE630E10D
:1001E600034418F6D2AF08D9EDEA8BD030000122CD
:1001F600D50DFCC0E0C0D0C0F0C083C082C000C036
:1002060001C002C003C004C005C006C007E50C2338
:100216002422F87440C2AF46F6D2AFD200E50CFFF6
:10022600232422F80F0808BF05047F007822E63051
:10023600E4F200E50CC39F5020050C741B250CF856
:10024600E6FDA68108E6AE0CBE040274FFCDF8E812
:100256006D60E008E6C0E080F6E50CD39F4027E538
:100266000C241CF8E6AE0CBE040274FFFD18E6CDA5
:10027600F8E5816D6006D0E0F61880F5E50C241BE4
:10028600C8F6150C80D3750D05E50C232422F87FDE
:1002960004C2AFE610E61E30E00310E20C7F003029
:0502A600E10730E30454
:1002AB007F0854F4547CC6D2AF54804207C200225C
:1002BB00F6D2AFD007D006D005D004D003D002D0F1
:1002CB0001D000D082D083D0F0D0D0D0E0C20022B9
:1002DB00781BA68174046006FF0876FFDFFB7F05A1
:1002EB00E47821F608F608DFFA782276309006CA11
:1002FB00740193C0E0E493C0E0750D05438901756B
:0D030B008AF0758CD8D28CD2AFD2A9220412
:10046C00BB010CE58229F582E5833AF583E0225045
:10047C0006E92582F8E622BBFE06E92582F8E2228F
:0D048C00E58229F582E5833AF583E49322A9
:00000001FF
